:020000021000EC
:10420000F06F002001460100694601006946010087
:10421000694601006946010069460100000000008E
:1042200000000000000000000000000069460100DE
:1042300069460100000000006946010075AC0100FC
:10424000E1780100EF780100FD7801000B790100B1
:1042500019790100277901003579010043790100BE
:10426000517901005F7901006D7901007B790100CE
:104270008979010097790100A5790100B3790100DE
:10428000C1790100694601006946010069460100E3
:10429000694601006946010069460100694601005E
:1042A000694601006946010069460100694601004E
:1042B000694601006946010069460100694601003E
:1042C000694601006946010069460100694601002E
:1042D000694601006946010069460100694601001E
:1042E000694601006946010069460100694601000E
:1042F00069460100694601006946010069460100FE
:1043000069460100694601006946010069460100ED
:1043100069460100694601006946010069460100DD
:1043200069460100694601006946010069460100CD
:1043300069460100694601006946010069460100BD
:1043400069460100694601006946010069460100AD
:10435000694601006946010069460100694601009D
:10436000694601006946010069460100694601008D
:104370006946010069460100D19A0100DF9A0100F7
:10438000ED9A0100FB9A0100099B010069460100BA
:1043900069460100179B0100259B01006946010049
:1043A000339B01006946010069460100694601002E
:1043B000419B01004F9B0100694601005D9B01008C
:1043C000694601006946010069460100694601002D
:1043D000694601006946010069460100694601001D
:1043E000694601006946010069460100694601000D
:1043F00069460100694601006946010069460100FD
:1045F000694601006946010069460100FFFFFFFFAF
:1046000072B64FF000014FF000024FF000034FF080
:1046100000044FF000054FF000064FF00007B846C9
:10462000B946BA46BB46BC460A490B4A521A013A39
:1046300005DD0020042308601944043AFBDA07482A
:104640008546074880470748804762B606F0B0FBBA
:10465000FEE700000080FF1FF06F0020F06F0020D9
:1046600085490100DD490100FFF7FEBF53B94AB992
:10467000002908BF00281CBF4FF0FF314FF0FF306A
:1046800000F07EB9ADF1080C6DE904CE00F006F83B
:10469000DDF804E0DDE9022304B070472DE9F047BE
:1046A000089D04468E46002B4ED18A4294466DD911
:1046B000B2FA82F757B1C7F1200EB94020FA0EFEC8
:1046C00002FA07FC4EEA010E00FA07F44FEA1C4911
:1046D000210CBEFBF9F61FFA8CF809FB16EE41EA35
:1046E0000E4106FB08F38B420AD91CEB010106F1CF
:1046F000FF3280F027818B4240F22481023E6144E8
:10470000C91AA4B2B1FBF9F009FB101144EA014443
:1047100000FB08F8A0450AD91CEB040400F1FF33A4
:1047200080F00E81A04540F20B810238644440EADB
:104730000640A4EB080400267DB1FC4000232C6059
:104740006B603146BDE8F0878B4209D9002D00F03F
:104750001481002685E8030030463146BDE8F08725
:10476000B3FA83F6002E40F090808B4202D382424F
:1047700000F2FD80841A61EB030101208E46002DBA
:10478000EBD085E810403146BDE8F0871AB94FF00C
:10479000010CBCFBF2FCBCFA8CF7A7BBA1EB0C0331
:1047A0004FEA1C421FFA8CF80126B3FBF2FE210CE3
:1047B00002FB1E3341EA034108FB0EF38B4208D98A
:1047C0001CEB01010EF1FF3002D28B4200F2D180CE
:1047D0008646C91AA3B2B1FBF2F002FB101143EAFC
:1047E000014408FB00F8A04508D91CEB040400F1C3
:1047F000FF3302D2A04500F2B7801846A4EB0804AC
:1048000040EA0E4098E7C7F1200301FA07F40CFADA
:1048100007FC20FA03FED9404FEA1C424EEA040E80
:10482000B1FBF2F64FEA1E4302FB16111FFA8CF899
:1048300043EA014306FB08F1994200FA07F40AD95A
:104840001CEB030306F1FF3080F08C80994240F2AC
:104850008980023E63445B1A1FFA8EF1B3FBF2F0CB
:1048600002FB103341EA034100FB08F38B4208D9F5
:104870001CEB010100F1FF3E70D28B426ED9023871
:104880006144CB1A40EA06468FE7C6F1200722FAB8
:1048900007F8B34001FA06F448EA030320FA07FCDC
:1048A0004FEA134EF9404CEA040CB1FBFEF94FEA13
:1048B0001C440EFB19111FFA83F844EA014109FB5D
:1048C00008F48C4202FA06F200FA06FA08D95918DE
:1048D00009F1FF3044D28C4242D9A9F102091944AE
:1048E000091B1FFA8CFCB1FBFEF00EFB10114CEA09
:1048F000014400FB08F8A04507D91C1900F1FF315D
:104900002AD2A04528D902381C4440EA0940A4EB29
:104910000804A0FB02894C45C446494616D313D06F
:1049200055B1BAEB0C0364EB010404FA07F7F3404A
:104930001F43F4402F606C6000263146BDE8F087CD
:104940001846F4E61646DBE6C245E9D2B8EB020C9F
:1049500069EB03010138E3E70846D6E7704690E7C4
:104960008146BDE7064676E70238644446E73046AE
:1049700005E7AEF1020E61442BE72E462846ECE631
:10498000704700BF80B400AF4FF0E0224FF0E0234B
:10499000D3F8883D43F47003C2F8883D4FF0E0221D
:1049A0004FF0E023D3F8343F23F08043C2F8343F84
:1049B000084B094A5A60074B5B68064B42F22012CB
:1049C0001A60044B4FF6FF729A6000BFBD465DF857
:1049D000047B70470020054020C528D980B48FB0E3
:1049E00000AF3A4B3B633A4B3B623A4B7B613A4BED
:1049F000FB623A4BFB613A4B3B613A4BBB623A4B31
:104A0000FB603A4B7B623A4BBB613A4BBB6009E0BF
:104A10003B6A1A783B6B1A703B6B01333B633B6A12
:104A200001333B627A693B6A9A42F1D109E0FB6942
:104A30001A78FB6A1A70FB6A0133FB62FB69013367
:104A4000FB613A69FB699A42F1D105E0BB6A002239
:104A50001A70BB6A0133BB62FA68BB6A9A42F5D12D
:104A600009E0BB691A787B6A1A70BB690133BB61C4
:104A70007B6A01337B62BA68BB699A42F1D1002339
:104A8000FB711D4A1D4B9A4216D000237B630AE03E
:104A90001A4A7B6B52F8232017497B6B41F823207D
:104AA0007B6B01337B63164B9B087A6B9A42EFD387
:104AB000144B114A1A6002E0124B104A1A6000BFF0
:104AC0003C37BD465DF8047B704700BF0084FF1F84
:104AD00040F20100B0F401007086FF1FB0F4010045
:104AE000B0F40100000000200008002000000020B9
:104AF000B0F40100B0F401000080FF1F004201008B
:104B00000004000008ED00E080B483B000AF7860DE
:104B10007B681B691B0903F0030318460C37BD466D
:104B20005DF8047B704780B487B000AFF8607B60AD
:104B30000B46FB721346BB72FB681B697B617B698A
:104B400023F03F037B61FB7A002B01D0012300E0BF
:104B500000237A6913437B61BB7A002B01D00223C7
:104B600000E000237A6913437B617B689B0003F0BC
:104B70000C037A6913437B613B6A1B0103F030032A
:104B80007A6913437B61FB687A691A6100BF1C373D
:104B9000BD465DF8047B704780B485B000AF786097
:104BA0000B46FB707B681B6CFB60FB6823F01003FB
:104BB000FB60FB78002B01D0102300E00023FA6893
:104BC0001343FB607B68FA681A6400BF1437BD4664
:104BD0005DF8047B704780B485B000AF78607B6877
:104BE0001B6CFB60FB681B0903F00103FB60FB68A7
:104BF000002B14BF01230023DBB218461437BD4637
:104C00005DF8047B704780B485B000AF78600B46D8
:104C1000FB707B681B6CFB60FB6823F00803FB6088
:104C2000FB78002B01D0082300E00023FA6813432F
:104C3000FB607B68FA681A6400BF1437BD465DF8F4
:104C4000047B704780B485B000AF78607B681B6CD4
:104C5000FB60FB68DB0803F00103FB60FB68002BD3
:104C600014BF01230023DBB218461437BD465DF89C
:104C7000047B704780B485B000AF78600B46FB7052
:104C80007B681B6CFB60FB6823F00403FB60FB7814
:104C9000002B01D0042300E00023FA681343FB60DB
:104CA0007B68FA681A6400BF1437BD465DF8047B60
:104CB000704780B485B000AF78607B681B6CFB6088
:104CC000FB689B0803F00103FB60FB68002B14BF2B
:104CD00001230023DBB218461437BD465DF8047B80
:104CE000704780B485B000AF78600B46FB707B687E
:104CF0001B6CFB60FB6823F00203FB60FB78002B5E
:104D000001D0022300E00023FA681343FB607B68B4
:104D1000FA681A6400BF1437BD465DF8047B70471B
:104D200080B485B000AF78607B681B6CFB60FB686B
:104D30005B0803F00103FB60FB68002B14BF012339
:104D40000023DBB218461437BD465DF8047B70477C
:104D500080B485B000AF78600B46FB707B681B6C3D
:104D6000FB60FB6823F00103FB60FB78002B01D0A4
:104D7000012300E00023FA681343FB607B68FA68B4
:104D80001A6400BF1437BD465DF8047B704780B4D9
:104D900085B000AF78607B681B6CFB60FB6803F03C
:104DA0000103FB60FB68002B14BF01230023DBB26F
:104DB00018461437BD465DF8047B704780B483B055
:104DC00000AF78607B68DB681B0E03F003031846B6
:104DD0000C37BD465DF8047B704780B483B000AFEC
:104DE00078607B68DB689B0E03F0030318460C3782
:104DF000BD465DF8047B704780B483B000AF786037
:104E00007B68DB681B0F03F0030318460C37BD46B5
:104E10005DF8047B704780B483B000AF78607B6836
:104E2000DB689B0F03F0030318460C37BD465DF8A3
:104E3000047B704780B483B000AF78607B681B69E7
:104E400003F00203002B14BF01230023DBB218463A
:104E50000C37BD465DF8047B704780B483B000AF6B
:104E600078607B681B6903F00103002B14BF0123EA
:104E70000023DBB218460C37BD465DF8047B704753
:104E800080B483B000AF78607B681B699B0803F037
:104E9000030318460C37BD465DF8047B704780B4A9
:104EA00083B000AF78607B685B6803F40063002B1D
:104EB00014BF01230023DBB218460C37BD465DF852
:104EC000047B704780B483B000AF78607B685B6818
:104ED0001B0A03F0070318460C37BD465DF8047B38
:104EE000704780B483B000AF78607B685B681B0953
:104EF00003F00F0318460C37BD465DF8047B70477E
:104F000080B487B000AFF8607A603B600B46FB72FC
:104F1000FB685B687B617B6923F47F637B61FB7A61
:104F2000002B02D04FF4006300E000237A691343A2
:104F30007B617B681B01DBB27A6913437B613B6851
:104F40001B0203F4E0637A6913437B61FB687A69AF
:104F50005A6000BF1C37BD465DF8047B704780B4C3
:104F600085B000AF786039607B685B68FB60FB6888
:104F700023F48053FB603B681B0303F48053FA68FF
:104F80001343FB607B68FA685A6000BF1437BD4664
:104F90005DF8047B704780B483B000AF78607B68B5
:104FA0009B6E7B6800229A6600BF0C37BD465DF899
:104FB000047B704780B485B000AFF8607A603B60D6
:104FC0000B46FB72FB7A002B02D04FF0805200E0C0
:104FD00000227B685B0003F00E031A433B6803F07A
:104FE00001031A43FB689A6600BF1437BD465DF89B
:104FF000047B704780B483B000AF78607B681B6A25
:105000001B0E03F00F0318460C37BD465DF8047BFA
:10501000704780B483B000AF78607B681B691B0E5B
:1050200003F00F0318460C37BD465DF8047B70474C
:1050300080B483B000AF78607B681B691B0C03F001
:105040000F0318460C37BD465DF8047B704780B4EB
:1050500083B000AF78607B681B691B0903F00F0306
:1050600018460C37BD465DF8047B704780B483B0AA
:1050700000AF78607B681B6903F00F0318460C379C
:10508000BD465DF8047B704780B487B000AFF86020
:10509000B9607A603B60BB681B0603F070627B6896
:1050A0001B0403F470231A433B681B01DBB21A4351
:1050B0003B6A03F00F0313437B61FB687A695A6113
:1050C00000BF1C37BD465DF8047B704780B487B0D5
:1050D00000AFF860B9607A603B60BB681B0603F004
:1050E00070627B681B0403F470231A433B681B0146
:1050F000DBB21A433B6A03F00F0313437B61FB6887
:105100007A699A6100BF1C37BD465DF8047B704721
:1051100080B487B000AFF860B9607A603B60BB686C
:105120001B0603F070627B681B0403F470231A43B0
:105130003B681B01DBB21A433B6A03F00F031343C6
:105140007B61FB687A69DA6100BF1C37BD465DF898
:10515000047B704780B483B000AF78607B68D3F87D
:10516000043303F0070318460C37BD465DF8047B93
:10517000704780B483B000AF78607B68D3F80433A5
:105180001B0A03F0070318460C37BD465DF8047B85
:10519000704780B487B000AFF860B9607A60BB68D0
:1051A00003F007027B681B0203F4E06313437B6197
:1051B000FB687A69C3F8042300BF1C37BD465DF85D
:1051C000047B704780B483B000AF78607B68D3F80D
:1051D000043203F0070318460C37BD465DF8047B24
:1051E000704780B483B000AF78607B68D3F8043236
:1051F0001B0A03F0070318460C37BD465DF8047B15
:10520000704780B487B000AFF860B9607A60BB685F
:1052100003F007027B681B0203F4E06313437B6126
:10522000FB687A69C3F8042200BF1C37BD465DF8ED
:10523000047B704780B483B000AF78607B68D3F89C
:10524000043103F0070318460C37BD465DF8047BB4
:10525000704780B483B000AF78607B68D3F80431C6
:105260001B0A03F0070318460C37BD465DF8047BA4
:10527000704780B487B000AFF860B9607A60BB68EF
:1052800003F007027B681B0203F4E06313437B61B6
:10529000FB687A69C3F8042100BF1C37BD465DF87E
:1052A000047B704780B483B000AF78607B68D3F82C
:1052B000043603F0070318460C37BD465DF8047B3F
:1052C000704780B483B000AF78607B68D3F8043651
:1052D0001B0A03F0070318460C37BD465DF8047B34
:1052E000704780B487B000AFF860B9607A60BB687F
:1052F00003F007027B681B0203F4E06313437B6146
:10530000FB687A69C3F8042600BF1C37BD465DF808
:10531000047B704780B485B000AF786039607B68EB
:105320001B6AFB60FB6823F07063FB603B681B0635
:1053300003F07063FA681343FB607B68FA681A62D3
:1053400000BF1437BD465DF8047B704780B485B05C
:1053500000AF78607B68D3F80032FB60FB685B0EBF
:1053600003F00103FB60FB68002B14BF0123002343
:10537000DBB218461437BD465DF8047B704780B435
:1053800083B000AF78607B68D3F8003203F080739D
:10539000002B14BF01230023DBB218460C37BD4697
:1053A0005DF8047B704780B483B000AF78607B68A1
:1053B000D3F8083203F0010318460C37BD465DF8F8
:1053C000047B704780B483B000AF78607B68D3F80B
:1053D000003223F400027B68C3F8002200BF0C37C0
:1053E000BD465DF8047B704780B483B000AF786041
:1053F0007B680022C3F8002200BF0C37BD465DF871
:10540000047B704780B483B000AF78600B46FB70BC
:10541000FB7803F001027B68C3F8082200BF0C3759
:10542000BD465DF8047B704780B485B000AF7860FE
:10543000084611461A460346FB700B46BB701346DE
:105440007B70FB78002B01D0032200E00122BB78A7
:10545000002B01D0042300E000231A437B78002BAB
:1054600002D04FF4000300E000231343FB607B688D
:10547000FA68C3F8002200BF1437BD465DF8047B0C
:10548000704780B485B000AF78607B68D3F8003394
:10549000FB60FB685B0E03F00103FB60FB68002B05
:1054A00014BF01230023DBB218461437BD465DF854
:1054B000047B704780B483B000AF78607B68D3F81A
:1054C000003303F08073002B14BF01230023DBB2F1
:1054D00018460C37BD465DF8047B704780B483B036
:1054E00000AF78607B68D3F8083303F003031846F5
:1054F0000C37BD465DF8047B704780B483B000AFC5
:1055000078607B68D3F8003323F400027B68C3F82B
:10551000002300BF0C37BD465DF8047B704780B4A4
:1055200083B000AF78607B684FF08062C3F80023DF
:1055300000BF0C37BD465DF8047B704780B483B074
:1055400000AF78600B46FB70FB7803F003027B68CA
:10555000C3F8082300BF0C37BD465DF8047B7047D5
:1055600080B485B000AF78600B46FB701346BB700B
:10557000FB78002B01D0012200E00922BB78002B30
:1055800002D04FF4000300E000231343FB607B686C
:10559000FA68C3F8002300BF1437BD465DF8047BEA
:1055A000704780B485B000AF78607B68D3F8003175
:1055B000FB60FB685B0E03F00103FB60FB68002BE4
:1055C00014BF01230023DBB218461437BD465DF833
:1055D000047B704780B483B000AF78607B68D3F8F9
:1055E000003103F08073002B14BF01230023DBB2D2
:1055F00018460C37BD465DF8047B704780B483B015
:1056000000AF78607B68D3F8003123F400027B6838
:10561000C3F8002100BF0C37BD465DF8047B70471E
:1056200080B483B000AF78607B684FF08062C3F8CD
:10563000002100BF0C37BD465DF8047B704780B485
:1056400085B000AFF860B9607A603B60BB681B0151
:1056500003F030027B68DB0003F008031A433B6869
:105660009B0003F004031A43FB68C3F8082100BF42
:105670001437BD465DF8047B704780B485B000AF39
:105680007860084611461A460346FB700B46BB700D
:1056900013467B70FB78002B02D04FF0011200E024
:1056A0000122BB78002B02D04FF4003300E000232E
:1056B0001A437B78002B02D04FF4000300E0002354
:1056C0001343FB607B68FA68C3F8002100BF1437FE
:1056D000BD465DF8047B704780B485B000AF78604C
:1056E0007B68D3F80036FB60FB685B0E03F00103B8
:1056F000FB60FB68002B14BF01230023DBB21846BC
:105700001437BD465DF8047B704780B483B000AFAA
:1057100078607B68D3F8003603F08073002B14BFE9
:1057200001230023DBB218460C37BD465DF8047B2D
:10573000704780B483B000AF78607B68D3F80836D8
:105740001B0A03F0070318460C37BD465DF8047BBF
:10575000704780B483B000AF78607B68D3F80836B8
:105760001B0C03F01F0318460C37BD465DF8047B85
:10577000704780B483B000AF78607B68D3F80036A0
:1057800023F400027B68C3F8002600BF0C37BD4637
:105790005DF8047B704780B483B000AF78607B68AD
:1057A0004FF08062C3F8002600BF0C37BD465DF89D
:1057B000047B704780B483B000AF78600B46FB7009
:1057C0001346BB70FB781B0203F4E062BB781B043A
:1057D00003F4F8131A437B68C3F8082600BF0C379C
:1057E000BD465DF8047B704780B485B000AF78603B
:1057F000084611461A460346FB700B46BB7013461B
:105800007B70FB78002B02D04FF0011200E00122E8
:10581000BB78002B02D04FF4003300E000231A4382
:105820007B78002B02D04FF4000300E000231343E9
:10583000FB607B68FA68C3F8002600BF1437BD46DA
:105840005DF8047B7047000080B487B000AFF8605B
:105850007B600B46FB721346BB727B681B0603F032
:10586000E0627B6ADB0003F008031A433B6A03F043
:1058700007031A43BB7A002B02D04FF0804300E0AD
:10588000002313437B61FB7A064A32F81330194632
:10589000FB687A6943F8212000BF1C37BD465DF8DC
:1058A000047B7047C8EC010080B483B000AF78601F
:1058B0000B46FB701346BB70BB78002B12D0FB78F5
:1058C000144A32F813301946FB78124A32F8133072
:1058D0001A467B6853F8223043F080427B6843F8D5
:1058E000212011E0FB780B4A32F813301946FB787F
:1058F000084A32F813301A467B6853F8223023F0F6
:1059000080427B6843F8212000BF0C37BD465DF81C
:10591000047B7047C8EC010080B485B000AF7860AC
:105920000B46FB70FB780C4A32F813301A467B6842
:1059300053F82230FB60FB689B0F03F00103FB6010
:10594000FB68002B14BF01230023DBB21846143779
:10595000BD465DF8047B7047C8EC010080B483B09D
:1059600000AF78600B46FB70FB78084A32F81330C2
:105970001A467B6853F822301B0E03F007031846C3
:105980000C37BD465DF8047B704700BFC8EC0100D2
:1059900080B483B000AF78600B46FB70FB78084A98
:1059A00032F813301A467B6853F82230DB0803F0D4
:1059B000010318460C37BD465DF8047B704700BFF5
:1059C000C8EC010080B483B000AF78600B46FB7078
:1059D000FB78074A32F813301A467B6853F82230B6
:1059E00003F0070318460C37BD465DF8047B70478B
:1059F000C8EC010080B485B000AF78600B46FB7046
:105A00007B689B78FB73FB7B03F07F03FB73FB7866
:105A100083F00103DBB2DB01DAB2FB7B1343FB73E0
:105A20007B68FA7B9A7000BF1437BD465DF8047B33
:105A3000704780B485B000AF78607B689B78FB735B
:105A4000FB7BDB09FB73FB7B002B0CBF01230023DB
:105A5000DBB218461437BD465DF8047B704780B44E
:105A600085B000AF78600B46FB70FB78FB7397F94D
:105A70000F30002B06DA2023BB73FA7BBB7B134469
:105A8000DBB2FB73FB7B7B737B681B793B733B7BDC
:105A900023F01F033B7397F90D3003F01F035AB235
:105AA00097F90C3013435BB23B737B683A7B1A71F6
:105AB00000BF1437BD465DF8047B704780B483B0E7
:105AC00000AF78607B685B69DBB218460C37BD4677
:105AD0005DF8047B704780B5A2B000AF78607B684A
:105AE000C7F884307B68002B08D107F108031846FB
:105AF00000F08CF907F10803C7F88430D7F8843038
:105B0000184600F01FF80346A7F88230B7F8823035
:105B1000002B11D1D7F884306C33184600F06CF8A4
:105B2000D7F884304433184600F0C2F8D7F88430F0
:105B30007433184600F04EF9B7F8823018468837AB
:105B4000BD4680BD80B584B000AF78600023FB8186
:105B50007B68002B46D001F0B3F80346FB81FB893C
:105B6000002B04D1786801F0DFF80346FB81FB8944
:105B7000002B37D17B6893F83030002B03D07B6843
:105B8000DB6A1B4A13607B6893F83530002B06D024
:105B90007B6893F8343019461648FFF7BBFB7B68E7
:105BA00093F84330002B1DD07B6836331946012013
:105BB00001F030FA0346FB81FB89002B07D17B689B
:105BC0003A331946022001F025FA0346FB81FB898E
:105BD000002B07D17B683E331946032001F01AFAE7
:105BE0000346FB81FB8918461037BD4680BD00BFC8
:105BF0003801002000400640F0B587B002AF786061
:105C00007B68002B4DD07B685B68002B49D000235C
:105C1000FB6041E07B685968FA6813469B001344B7
:105C20000B441B78002219462048FFF73DFE7B6895
:105C30005968FA6813469B0013440B4418787B6834
:105C40005968FA6813469B0013440B445C787B68E0
:105C50005968FA6813469B0013440B449B781E4610
:105C60007B685968FA6813469B0013440B441B7900
:105C70001D467B685968FA6813469B0013440B4421
:105C8000DB78019300953346224601460748FFF72B
:105C9000DBFDFB680133FB607B681A68FB689A4296
:105CA000B8D800BF1437BD46F0BD00BF0050064055
:105CB00080B586B002AF78607B681B78002B09D076
:105CC0007B6859787B689B781A467B68DB783F480D
:105CD000FFF716F97B681B79002B0DD07B68197ACA
:105CE0007B68DA797B689B7918467B685B790093DF
:105CF00003463648FEF717FF7B681B7F002B1FD03B
:105D00007B685B7F19463148FFF722F87B689B7FF1
:105D100019462E48FEF7E5FF7B68DB7F19462B48C6
:105D2000FEF7A8FF7B6893F8203019462748FEF756
:105D30006AFF7B6893F8213019462448FEF72CFF50
:105D40007B681B7B002B15D00023FB730FE0FB7BD4
:105D5000022B09D8FA7BFB7B796802339B000B444A
:105D60009B681B4941F82230FB7B0133FB73FB7BB3
:105D7000022BECD97B6893F82230002B21D01348FA
:105D8000FFF709F97B6893F8243019460F48FFF7AD
:105D9000E6F80023002200210C48FFF70BF97B688E
:105DA00093F82330002B0CD07B6893F823107B688A
:105DB00093F825301A467B6893F826300348FFF79E
:105DC000F9F800BF1037BD4680BD00BF0080044019
:105DD0002C01002080B582B000AF78607B681B7812
:105DE000002B0CD07B685B7819460748FFF702FE52
:105DF0007B6893F9023019460348FFF730FE00BF75
:105E00000837BD4680BD00BF00D0074080B483B0D6
:105E100000AF78607B680122DA707B6800221A711B
:105E20007B6801225A717B6800229A717B6801228B
:105E30001A707B6801225A707B6801229A707B6815
:105E400001229A737B6801221A737B6800225A73BD
:105E50007B680022DA717B6801221A727B6801225A
:105E60005A727B68012283F830207B680022DA6254
:105E70007B6801225A777B68754A1A617B68002229
:105E80001A757B6800221A777B6801225A757B6835
:105E900000229A757B680222DA757B6801221A76E5
:105EA0007B6801225A767B68012283F828207B6870
:105EB000002283F820207B68002283F827207B685B
:105EC000002283F821207B680C2283F822207B6843
:105ED000002283F823207B68012283F824207B683A
:105EE000012283F825207B68012283F835207B6816
:105EF000032283F834207B68012283F843207B68E7
:105F0000032283F839207B68002283F838207B68DD
:105F1000012283F837207B68012283F836207B68D2
:105F2000022283F83D207B68012283F83C207B68B5
:105F3000002283F83B207B68032283F83A207B68A9
:105F4000062283F841207B68002283F840207B688A
:105F5000012283F83F207B68032283F83E207B6880
:105F60003C4A1A677B682022DA667B68012283F844
:105F700044207B68002283F845207B68002283F858
:105F800046207B68002283F847207B68012283F843
:105F900048207B68012283F84C207B68012283F82B
:105FA0004B207B68002283F84A207B68002283F81C
:105FB00049207B68012283F860207B68012283F8F6
:105FC00061207B68012283F862207B68012283F8CC
:105FD00063207B68012283F864207B68012283F8B8
:105FE00065207B68012283F86B207B68012283F89F
:105FF00050207B6800225A657B6800229A657B6886
:106000000022DA657B68012283F866207B68012222
:1060100083F867207B68002283F868207B68002271
:1060200083F869207B68002283F86A207B6801225C
:1060300083F874207B68012283F875207B68002236
:1060400083F8762000BF0C37BD465DF8047B7047AF
:1060500000127A00A885FF1F80B584B000AF034608
:106060003960FB710023FB810023BB60FB79112B9E
:1060700000F2838001A252F823F000BFC560010046
:10608000CF600100D9600100E3600100EB60010016
:10609000F3600100FB600100036101000B6101007E
:1060A000136101001B6101002761010033610100E0
:1060B0003F6101004B610100576101006361010014
:1060C0006F610100002000F013FFB86058E001206C
:1060D00000F00EFFB86053E0022000F009FFB86046
:1060E0004EE000F01BFBB8604AE001F053F9B860E5
:1060F00046E001F06BF9B86042E001F033F9B860B6
:106100003EE001F081F9B8603AE0234B1B68BB60C8
:1061100036E000F07BFBB86032E00021042001F0A3
:1061200093F8B8602CE00121042001F08DF8B860EC
:1061300026E00021052001F087F8B86020E0012169
:10614000052001F081F8B8601AE00021062001F076
:106150007BF8B86014E00121062001F075F8B86002
:106160000EE00021072001F06FF8B86008E001217F
:10617000072001F069F8B86002E00423FB8100BF4A
:106180003B68002B02D03B68BA681A60FB8918464E
:106190001037BD4680BD00BF3801002080B586B0F5
:1061A00000AF03463960FB710023FB8200233B6193
:1061B000FB79153B0E2B00F2E18001A252F823F08F
:1061C000FD610100196201003562010051620100A8
:1061D0006D620100756201007D6201009362010041
:1061E000C3620100E7620100FB6201001563010068
:1061F0002F63010049630100636301007348FEF7E8
:10620000DDFDF860FB68022B00F2BB80704AFB6882
:1062100052F823303B61B4E06C48FEF7DEFDF860D5
:10622000FB68022B00F2AF80694AFB6852F823300A
:106230003B61A8E06548FEF7DFFDF860FB68022BD4
:1062400000F2A380624AFB6852F823303B619CE075
:106250005E48FEF7E0FDF860FB68022B00F29780D5
:106260005B4AFB6852F823303B6190E000F056FA3D
:1062700038619FE000F004FB38619BE05548FFF770
:10628000D8FB0346002B00F0848001F0EFF8386162
:106290007FE05048FFF7CDFB0346002B7BD04B48F7
:1062A000FEF7C8FD0346002B08D04848FEF7D5FD91
:1062B0000346002B02D04FF47A7300E000233B61C9
:1062C00069E04448FFF7B5FB0346002B65D03F4823
:1062D000FEF7B0FD0346002B02D04FF4FA4300E076
:1062E00000233B6159E03B48FFF7A3FB0346002B2B
:1062F00055D04FF4FA333B6151E03448FEF76BFC64
:10630000034683F00103DBB2002B4AD04FF48073C5
:10631000FB8246E02D48FEF795FC034683F001031F
:10632000DBB2002B3FD04FF48073FB823BE0274869
:10633000FEF7BFFC034683F00103DBB2002B34D031
:106340004FF48073FB8230E02048FEF7E9FC0346FF
:1063500083F00103DBB2002B29D04FF48073FB8262
:1063600025E01A48FEF713FD034683F00103DBB274
:10637000002B1ED04FF48073FB821AE00423FB82B3
:1063800018E000BF16E000BF14E000BF12E000BF3D
:1063900010E000BF0EE000BF0CE000BF0AE000BF4D
:1063A00008E000BF06E000BF04E000BF02E000BF5D
:1063B00000E000BF3B68002B02D03B683A691A60DE
:1063C000FB8A18461837BD4680BD00BF00800440D8
:1063D0002C01002000D0074080B584B000AF0346F8
:1063E000FB710023FB81FB79242B0ED9FB79332B26
:1063F0000BD0FB79392B08D0FB793B2B05D0FB79EF
:10640000402B02D0FB794D2B02D10423FB8110E0FD
:10641000FB7919460948FFF77FFA034683F0010329
:10642000DBB2002B03D04FF48073FB8101E000232B
:10643000FB81FB8918461037BD4680BD00500640E1
:1064400080B584B000AF03463960FB710023FB8147
:106450000023BB60FB791846FFF7BEFF0346FB81B4
:10646000FB89002B60D1FB79354AD35C03F0200314
:10647000002B0BD0012000F03BFD0346002B02D186
:106480004FF4807300E00023FB8123E0FB792C4A6A
:10649000D35C03F04003002B0BD0002000F028FD5C
:1064A0000346002B02D14FF4807300E00023FB81F0
:1064B00010E0FB79224AD35C5BB2002B0ADA02209F
:1064C00000F016FD0346002B02D14FF4807300E06C
:1064D0000023FB81FB89002B26D1FB79184AD35C72
:1064E00003F01803002B1FD0FB79154AD35C03F08F
:1064F0000803002B05D0FB790021184600F050F866
:10650000B860FB790E4AD35C03F01003002B05D072
:10651000FB790121184600F043F8B860BB68002BF6
:1065200002D14FF48073FB813B68002B02D03B68A3
:10653000BA681A60FB8918461037BD4680BD00BF97
:1065400068ED010080B584B000AF03463960FB718F
:10655000FB79112B07D8FB7939681846FFF77CFDCA
:106560000346FB8117E0FB79232B07D8FB793968B9
:106570001846FFF713FE0346FB810CE0FB794D2B19
:1065800007D8FB7939681846FFF75AFF0346FB81A5
:1065900001E00423FB81FB8918461037BD4680BD0E
:1065A00080B586B000AF03460A46FB711346BB7147
:1065B00000237B61FB7919462E48FFF7E9F9386122
:1065C000FB7919462B48FFF7FDF9F8603A69FB683B
:1065D0009A424AD8FB7919462648FFF79DF90346A7
:1065E000002B42D0FB7919462248FFF7B7F9034642
:1065F000013B052B2AD801A252F823F015660100B1
:1066000023660100316601004D6601004D66010000
:106610003F660100BB791946062000F015FE78613F
:1066200017E0BB791946042000F00EFE786110E0F7
:10663000BB791946052000F007FE786109E0BB79B7
:106640001946072000F000FE786102E000237B611C
:1066500000BFFB6801337A69B2FBF3F37B613B69EE
:106660005A1C7B6902FB03F37B617B691846183770
:10667000BD4680BD0050064080B582B000AF0E48D8
:10668000FFF71CFA0346042B0AD0802B02D0012B03
:1066900003D008E00323FB7108E00123FB7105E050
:1066A0000223FB7102E00423FB7100BFFB79184653
:1066B0000837BD4680BD00BF00E0074080B586B00A
:1066C00000AF78600023FB82FFF7D6FF0346FB7321
:1066D000FB7B7968184600F09DFC0346FB82FB8A31
:1066E000002B14D10A233B613B69013B3B610A4803
:1066F000FEF78FFC02467B68DB789A4202D03B694A
:10670000002BF1D13B69002B01D10323FB82FB8AD3
:1067100018461837BD4680BD0040064080B582B09F
:1067200000AF3948FEF7BBFB0346002B65D0364867
:10673000FEF7D7FB03460E2B52D801A252F823F0E6
:106740007D670100E167010085670100E1670100E5
:1067500091670100E16701009D670100A9670100E1
:10676000B3670100BF670100C9670100E16701006D
:10677000D1670100E1670100D967010000F046F828
:10678000786030E00121062000F05EFD78602AE0AC
:106790000121042000F058FD786024E0012105204B
:1067A00000F052FD78601EE0002000F0A1FB786050
:1067B00019E00121072000F047FD786013E0012077
:1067C00000F096FB78600EE04FF4FA337B600AE04D
:1067D00000F04CFE786006E000F052F8786002E0CD
:1067E00000237B6000BF0848FEF76CFB03460133C3
:1067F0007A68B2FBF3F37B6001E000237B607B6887
:1068000018460837BD4680BD0080044080B582B080
:1068100000AF1A48FEF7EEFB0346062B25D801A26F
:1068200052F823F0416801004B68010053680100F1
:106830005B6801006B6801006B6801006368010020
:10684000022000F055FB786012E000F08BFD7860CC
:106850000EE000F09FFD78600AE000F0B7FD786080
:1068600006E000F0D1FD786002E000237B6000BF0D
:106870007B6818460837BD4680BD00BF0040064013
:1068800080B582B000AF1A48FEF73EF90346032BED
:1068900026D801A252F823F0A9680100B5680100CA
:1068A000CD680100D56801000021062000F0CCFC75
:1068B000786018E00E48FEF7BDFA0346002B02D0C0
:1068C0004FF4FA4300E000237B600CE0094B1B68A7
:1068D0007B6008E00021052000F0B6FC786002E053
:1068E00000237B6000BF7B6818460837BD4680BD2B
:1068F000008004403801002080B588B000AF034616
:106900003960FB710023FB833B68002B0FD1002310
:106910003B7401237B740023BB7401237B7301232D
:10692000BB7301233B7307F10C03BB6101E03B68C0
:10693000BB612248FEF70AFD0346002B02D002236A
:10694000FB8305E01D48FEF73DFD1C48FEF74CFDAE
:10695000FB79002B2DD0FB8B002B2AD1BB695B78F8
:106960001946BB699B781A461448FEF74AFCBB6976
:106970001B7819461148FEF745FDBB691979BB69BB
:106980005A79BB699B790D48FEF74EFD64237B6104
:1069900002E07B69013B7B6100F0FCFC0346002BBD
:1069A00002D17B69002BF4D17B69002B01D1032339
:1069B000FB83FB8B18462037BD4680BD0040064058
:1069C00080B588B000AF03463960FB710023FB83BC
:1069D0003B68002B0DD101237B740023BB74012382
:1069E0007B730123BB7300233B7307F10C03BB6173
:1069F00001E03B68BB612248FEF743FD0346002BE4
:106A000002D00223FB8305E01D48FEF776FD1C48FB
:106A1000FEF785FDFB79002B2CD0FB8B002B29D1B9
:106A2000BB695B781946BB699B781A461448FEF728
:106A3000B0FBBB691B7819461148FEF77FFDBB69A7
:106A40005979BB699B791A460D48FEF789FD642385
:106A50007B6102E07B69013B7B6100F0B7FC034690
:106A6000002B02D17B69002BF4D17B69002B01D173
:106A70000323FB83FB8B18462037BD4680BD00BF38
:106A80000040064080B58AB000AF03463960FB7114
:106A90000023FB843B68002B13D100233B740023AD
:106AA0003B7601233B7501237B7501237B74002317
:106AB000BB740223FB74384BFB6007F10C033B6291
:106AC00001E03B683B623548FEF76BFD0346002B57
:106AD00002D00223FB8408E03048FEF78FFD2F48E8
:106AE000FEF79EFD2E4B00221A60FB79002B4ED044
:106AF000FB8C002B4BD13B6A1B7A19463B6A5B7AB5
:106B00001A462648FEF7B5FB3B6ADB7919463B6A15
:106B10009B791A463B6A5B792048FEF790FD3B6AF9
:106B20001B79012B0CD0022B12D0002B00D017E0C8
:106B30003B6A1B7B002200211848FEF79EFD0FE0F8
:106B40003B6A1B7B002201211448FEF796FD07E0FB
:106B50003B6A1B7B012201211048FEF78EFD00BF1E
:106B60003B6A1B680E4A13600E4BFB6102E0FB6937
:106B7000013BFB6100F0F6FB0346002B02D1FB69F1
:106B8000002BF4D1FB69002B01D10323FB84FB8C88
:106B900018462837BD4680BD00127A0000400640E6
:106BA0003C01002088E7300080B58AB000AF034682
:106BB0003960FB710023FB843B68002B11D100235B
:106BC0003B730023FB7401233B7401237B7400237C
:106BD0007B730723BB730023FB7307F10C033B623A
:106BE00001E03B683B623548FEF776FD0346002B2B
:106BF00002D00223FB8405E03048FEF7BAFD2F489F
:106C0000FEF7C9FDFB79002B52D0FB8C002B4FD136
:106C100000F0A8FBB8613B6A5B780133BA69B2FB4C
:106C2000F3F3BB613B6A1B7919463B6A5B791A46F1
:106C30002248FEF756FB3B6A59783B6A9B781A4616
:106C40001E48FEF7B7FD3B6A1B78012B0CD0022BC8
:106C500012D0002B00D017E03B6ADB790022002124
:106C60001648FEF7C1FD0FE03B6ADB7900220121E7
:106C70001248FEF7B9FD07E03B6ADB7901220121EA
:106C80000E48FEF7B1FD00BF4FF47A73FB6102E0DE
:106C9000FB69013BFB6100F0B7FB0346002B02D10F
:106CA000FB69002BF4D1FB69002B01D10323FB848A
:106CB000FB8C18462837BD4680BD00BF004006400B
:106CC00080B582B000AF0023FB801548FEF7A1F924
:106CD0000346032B1ED000F079FB0346002B05D1A1
:106CE00000210120FFF76CFE0346FB80FB88002B90
:106CF00010D10323FB700B4BDB78BB70094B1B7966
:106D00007B70084B5B793B703B461846FFF7D6FC1F
:106D10000346FB80FB8818460837BD4680BD00BF90
:106D200000400640B8ED010080B586B000AF786045
:106D30000023FB827B68DB787A6811461846FFF7F0
:106D4000DBFD0346FB82FB8A002B17D17B685A7F51
:106D50007B68103319461046FFF794FE0346FB820A
:106D6000FB8A002B0AD17B6893F828207B682033AC
:106D700019461046FFF718FF0346FB82FFF77CFC1D
:106D80000346022B07D0032B09D0012B0BD17B68C4
:106D900036333B610AE07B683A333B6106E07B684F
:106DA0003E333B6102E000233B6100BFFB8A002BC6
:106DB00040F096803B69DB78032B71D10123FB8285
:106DC0007B6893F82830002B14D0FB8A012B11D15B
:106DD0000623FB73454B5B7ABB73444B9B7A7B73F7
:106DE000424BDB7A3B7307F10C031846FFF766FC56
:106DF0000346FB827B685B7F002B14D0FB8A012B50
:106E000011D10123FB73394B9B79BB73374BDB7972
:106E10007B73364B1B7A3B7307F10C031846FFF765
:106E20004DFC0346FB827B68DB78002B14D0FB8A89
:106E3000012B11D10223FB732C4B1B78BB732B4B03
:106E40005B787B73294B9B783B7307F10C031846E7
:106E5000FFF734FC0346FB82FB8A002B40D17B68A2
:106E60009A7B7B68073319461046FFF7A9FD034656
:106E7000FB82FB8A002B33D13B69DB78FB733B69D8
:106E80009B78BB733B695B787B733B691B783B7377
:106E900007F10C031846FFF711FC0346FB821FE0C5
:106EA0003B69DB78FB733B699B78BB733B695B7821
:106EB0007B733B691B783B7307F10C031846FFF7A4
:106EC000FDFB0346FB82FB8A002B09D17B689A7B82
:106ED0007B68073319461046FFF772FD0346FB82B5
:106EE000FB8A18461837BD4680BD00BFC4ED0100BF
:106EF00080B584B000AF0346FB712C48FEF789F8DB
:106F00000346013B052B1FD801A252F823F000BF16
:106F1000296F0100316F0100396F0100496F0100D5
:106F2000496F0100416F010000F01CFAF8600EE0AB
:106F300000F030FAF8600AE000F048FAF86006E085
:106F400000F062FAF86002E00023FB6000BF17481F
:106F5000FEF76EF803460133FA68B2FBF3F3FB6009
:106F6000FB79012B04D0022B0CD0002B17D013E09F
:106F70000E48FEF76CF803460133FA68B2FBF3F3F0
:106F8000FB600DE00948FEF771F803460133FA682B
:106F9000B2FBF3F3FB6003E00023FB6000E000BF03
:106FA000FB6818461037BD4680BD00BF0040064054
:106FB00080B584B000AF0346FB710023FB60FB7912
:106FC000013B052B1ED801A252F823F0E56F01000A
:106FD000ED6F0100F56F0100057001000570010003
:106FE000FD6F010000F0BEF9F8600EE000F0D2F98C
:106FF000F8600AE000F0EAF9F86006E000F004FA50
:10700000F86002E00023FB6000BFFB681846103701
:10701000BD4680BD80B58AB002AF03463960FB71C2
:107020000023FB830023BB613B689B7801337B61BA
:107030003B689B7801333A685278013202FB03F3D4
:107040003B613B689B7801333A681278013202FB5E
:1070500003F3FB603B68DB781846FFF7A9FFB861D4
:10706000BB691B09BB61FB79022B4ED0032B00F0DF
:107070009580012B00D0DAE03B68DB7819466E4A38
:107080000B465B000B449B0013441B681B097A6989
:1070900002FB03F2BB699A4223D33B68DB781946B3
:1070A000654A0B465B000B449B00134404331B688A
:1070B0001B093A6902FB03F2BB699A4211D33B6890
:1070C000DB7819465C4A0B465B000B449B0013447B
:1070D00008331B681B09FA6802FB03F2BB699A427A
:1070E00002D20123FB83A2E03B68DB7819463B68B0
:1070F0009B781A463B685B7818463B681B78009380
:1071000003464E48FDF7C0FF91E03B68DB78194627
:107110004B4A0B465B000B449B0013441B681B0946
:107120007A6902FB03F2BB699A4223D33B68DB789E
:107130001946434A0B465B000B449B00134404333F
:107140001B681B093A6902FB03F2BB699A4211D31F
:107150003B68DB7819463A4A0B465B000B449B00C0
:10716000134408331B681B09FA6802FB03F2BB696E
:107170009A4202D20123FB8359E03B68DB7819462F
:107180003B689B781A463B685B7818463B681B78DF
:10719000009303462948FDF799FF48E03B68DB78F8
:1071A0001946284A0B465B000B449B0013441B689E
:1071B0001B097A6902FB03F2BB699A4223D33B683D
:1071C000DB7819461F4A0B465B000B449B001344B7
:1071D00004331B681B093A6902FB03F2BB699A423C
:1071E00011D33B68DB781946164A0B465B000B440B
:1071F0009B00134408331B681B09FA6802FB03F267
:10720000BB699A4202D20123FB830FE03B68DB7823
:1072100019463B689B781A463B685B7818463B6882
:107220001B78009303460548FDF772FF00BFFB8BF8
:1072300018462037BD4680BDD0ED01000040064015
:1072400024EE010078EE010080B584B000AF034663
:107250000A46FB711346BB710023BB60BB79002B50
:1072600002D0012B34D067E0FB79043B032B2BD8F1
:1072700001A252F823F000BF997201008972010047
:10728000A9720100B972010000F0A0F8F86034485A
:10729000FDF760FFB8601AE000F07CF8F860304855
:1072A000FDF790FFB86012E000F05CF8F8602C4841
:1072B000FDF7C0FFB8600AE000F0A6F8F8602848C3
:1072C000FDF7F0FFB86002E00023FB6000BF36E08E
:1072D000FB79043B032B2BD801A252F823F000BF0B
:1072E00001730100F17201001173010021730100AB
:1072F00000F06CF8F8601A48FDF73BFFB8601AE040
:1073000000F048F8F8601648FDF76BFFB86012E02F
:1073100000F028F8F8601248FDF79BFFB8600AE01B
:1073200000F072F8F8600E48FDF7CBFFB86002E09D
:107330000023FB6000BF02E00023FB6000BFBB68CE
:10734000002B06D0BB68013BFA6822FA03F3FB600E
:1073500001E00023FB60FB6818461037BD4680BD86
:107360000040064080B582B000AF0848FEF732F911
:107370000346002B03D0064B1B687B6001E0002313
:107380007B607B6818460837BD4680BD00400640DC
:107390003C01002080B582B000AF00237B6009482B
:1073A000FDF7EDFF0346002B07D00648FDF7FBFF76
:1073B0000346002B01D0044B7B607B6818460837DE
:1073C000BD4680BD0040064000127A0080B582B004
:1073D00000AF0B48FEF76EF80346002B08D00848B4
:1073E000FEF77CF80246074B53F822307B6001E041
:1073F00000237B607B6818460837BD4680BD00BF10
:1074000000400640CCEE010080B582B000AF1648C7
:10741000FEF77BF90346002B1ED0FFF7A3FF786031
:107420007B68002B15D01048FEF783F90346013323
:107430007A68B2FBF3F37B600B48FEF78AF90346E8
:1074400003F110027B6802FB03F37B607B685B083F
:107450007B607B683B6001E000233B603B68184633
:107460000837BD4680BD00BF0040064080B582B0F1
:1074700000AF00237B601E48FDF702FD0346032B8F
:107480002FD801A252F823F099740100A1740100D1
:10749000A7740100BF7401004FF4FA337B6021E050
:1074A00000237B601EE01248FDF7C4FC0346002B5E
:1074B00002D04FF4FA4300E000237B6012E00C4856
:1074C000FDF7B8FC0346002B08D00948FDF7C5FCC2
:1074D0000346002B02D04FF47A7300E000237B6058
:1074E00000E000BF7B6818460837BD4680BD00BF7E
:1074F0000080044080B485B000AFF8607A601A461E
:107500000B46FB721346BB720A4AFB681360094ABA
:10751000FB7A1371074A7B689360064ABB7A137340
:10752000044ABB7A5373002318461437BD465DF8EE
:10753000047B70471C01002080B586B000AF034675
:107540000A46FB711346BB710023BB82FB793B7378
:10755000BB797B7302F078FB534B1A7B524B5A7307
:107560000123BB730023FB7525E04F4B9A68FB7D1D
:107570009B0013441B683B613B69002B18D03B699F
:107580001B79022B14D03B691B683A69916807F19B
:107590000C02104698470346002B09D0424AFB7D57
:1075A0005373BB79002B03D140F20313BB8207E076
:1075B000FB7D0133FB753C4B1B7BFA7D9A42D4D398
:1075C000BB8A002B02D0BB79012B14D1364B1A6831
:1075D000FB799B0013441B68184600F077F80346BC
:1075E000BB82BB8A002B0CBF01230023BB752E4A34
:1075F000FB79537101E00023BB75BB7D002B30D0BC
:107600000223BB730023FB7525E0274B9A68FB7DA3
:107610009B0013441B683B613B69002B18D03B69FE
:107620001B79012B14D03B691B683A69916807F1FB
:107630000C02104698470346002B09D01A4AFB7DDE
:107640005373BB79002B03D14FF48273BB8224E0C8
:10765000FB7D0133FB75144B1B7BFA7D9A42D4D31F
:107660001BE00023BB73104B9A68FB7D9B00134407
:107670001B683B613B69002B07D03B691B683A697B
:10768000916807F10C0210469847FB7D002B03D050
:10769000FB7D013BFB75E6E700BF02F0BDFABB8A4C
:1076A00018461837BD4680BD1C01002080B582B049
:1076B00000AF03463960FB71FB7939681846FEF765
:1076C00041FF034618460837BD4680BD80B582B0ED
:1076D00000AF78607868FEF7FEF903461846083771
:1076E000BD4680BD80B483B000AF78600B46FB70B0
:1076F0007B68FA789A7700BF0C37BD465DF8047B4B
:10770000704780B483B000AF78600B46FB707B6835
:10771000FA781A7700BF0C37BD465DF8047B7047D6
:1077200080B483B000AF78600B46FB707B68FA785A
:10773000DA7700BF0C37BD465DF8047B7047000068
:1077400080B584B000AF0346FB71FB791B09FB7366
:10775000FB7903F00F03BB73074BBB60BB7B194680
:10776000B868FFF7CEFFBB7B1946B868FFF7D8FFB4
:1077700000BF1037BD4680BD0080004080B584B09A
:1077800000AF0346FB710F4B1B68FA7953F82230A8
:10779000FB60FB791846FFF7D3FFFB68002B0CD08A
:1077A000FB685B68002B08D0FB685B68FA68906830
:1077B000FA68127BD2B21146984700BF1037BD4617
:1077C00080BD00BF4001002080B586B000AF0346F9
:1077D000FB71FB791B09FB75FB7903F00F03BB758C
:1077E000164B3B61BB7D00221946386900F054F806
:1077F000134B1B68FA7953F82230FB60FB68002BAF
:1078000018D0FB791846FFF79BFFBB7D19463869F6
:10781000FFF768FFFB6801221A73FB685B68002BA7
:1078200008D0FB685B68FA689068FA68127BD2B28D
:107830001146984700BF1837BD4680BD0080004004
:107840004001002080B584B000AF0346FB71FB7996
:107850001B09FB73FB7903F00F03BB73064BBB6083
:10786000BB7B00221946B86800F016F800231846C2
:107870001037BD4680BD00BF0080004080B483B09B
:1078800000AF7860034B18460C37BD465DF8047BAB
:10789000704700BF0080004080B483B000AF7860C4
:1078A0000B46FB701346BB70BB78002B03D07B6884
:1078B000FA78DA7602E07B68FA789A7600BF0C37BD
:1078C000BD465DF8047B704780B483B000AF78603C
:1078D0007B68DB6A18460C37BD465DF8047B704751
:1078E00080B500AF0020FFF749FF00BF80BD80B525
:1078F00000AF0120FFF742FF00BF80BD80B500AFA1
:107900000220FFF73BFF00BF80BD80B500AF032022
:10791000FFF734FF00BF80BD80B500AF0420FFF744
:107920002DFF00BF80BD80B500AF0520FFF726FF0B
:1079300000BF80BD80B500AF0620FFF71FFF00BF6E
:1079400080BD80B500AF0720FFF718FF00BF80BDE6
:1079500080B500AF0820FFF711FF00BF80BD80B5E4
:1079600000AF0920FFF70AFF00BF80BD80B500AF60
:107970000A20FFF703FF00BF80BD80B500AF0B20DA
:10798000FFF7FCFE00BF80BD80B500AF0C20FFF705
:10799000F5FE00BF80BD80B500AF0D20FFF7EEFE05
:1079A00000BF80BD80B500AF0E20FFF7E7FE00BF2F
:1079B00080BD80B500AF0F20FFF7E0FE00BF80BDA7
:1079C00080B584B000AF0020FFF758FF786078687A
:1079D000FFF77AFFF8600023FB720023FB720EE0D2
:1079E000FB6803F00103002B03D0FB7A1846FFF776
:1079F000EBFEFB685B08FB60FB7A0133FB72FB7AF2
:107A00000F2BEDD900BF1037BD4680BD80B483B0C9
:107A100000AF78607B680133DB009B0805331846B4
:107A20000C37BD465DF8047B704780B483B000AF6F
:107A300078607B681B68DB43DB0FDBB218460C37D2
:107A4000BD465DF8047B704780B483B000AF7860BA
:107A50000B46FB707B685B6823F40052FB785B038A
:107A600003F400531A437B685A6000BF0C37BD46CD
:107A70005DF8047B704780B483B000AF78603960F4
:107A80007B685A684FF6F87313407A6853607B68D6
:107A90005A683B681B6803F007013B689B681B043E
:107AA00003F4E02319433B685B68DB0403F46013D1
:107AB00019433B68DB681B0619433B681B699B0540
:107AC00003F440030B431A437B685A6000BF0C3732
:107AD000BD465DF8047B704780B485B000AFF860A8
:107AE000B9607A60FB68BA6802F50872796843F891
:107AF000221000BF1437BD465DF8047B70470000BC
:107B000080B483B000AF786039607B681B6D03F090
:107B100000427B681A657B681A6D3B681B689B0294
:107B200099B23B689B6803F01F0319433B685B688D
:107B30005B0103F4787319433B68DB685805094B14
:107B4000034019433B681B691B0403F4F8130B4300
:107B50001A437B681A6500BF0C37BD465DF8047B8D
:107B6000704700BF0000E07F80B483B000AF786052
:107B700039607B68D3F8042C164B13407A68C2F83E
:107B8000043C7B68D3F8042C3B681B689B0203F41D
:107B9000F8413B689B6803F0070319433B685B6847
:107BA0005B01DBB219433B68DB6818050A4B0340F5
:107BB00019433B681B691B0403F4E0230B431A437E
:107BC0007B68C3F8042C00BF0C37BD465DF8047B0E
:107BD000704700BF188308C00000F03F80B483B036
:107BE00000AF78600B46FB707B681B6823F4006273
:107BF000FB78002B02D04FF4006300E000231A430F
:107C00007B681A607B681B6D23F00042FB78002BB9
:107C100002D04FF0004300E000231A437B681A654E
:107C200000BF0C37BD465DF8047B704780B483B05D
:107C300000AF78607B681B6803F40063002B14BFFF
:107C400001230023DBB218460C37BD465DF8047BE8
:107C5000704780B483B000AF78607B689B6800BFDA
:107C60000C37BD465DF8047B704780B483B000AF2D
:107C700078607B681B6803F00053002B14BF01235E
:107C80000023DBB218460C37BD465DF8047B704715
:107C900080B485B000AF78600023FB737B681B68FD
:107CA0001B0A03F00303032B16D801A252F823F09A
:107CB000C17C0100C77C0100CD7C0100D37C0100A8
:107CC0000023FB7309E00123FB7306E00223FB732F
:107CD00003E00323FB7300E000BFFB7B184614376F
:107CE000BD465DF8047B704780B483B000AF786018
:107CF0007B681B6803F07F0318460C37BD465DF8B0
:107D0000047B704780B485B000AF78603960002391
:107D1000FB733B681F2B0FD87B689B6ABB607B683B
:107D20001A6BBB681A403B6803F01F0322FA03F387
:107D3000DBB203F00103FB73FB7B18461437BD462F
:107D40005DF8047B704780B485B000AF786039601F
:107D50003B6803F01F03012202FA03F3FB603B6858
:107D60001F2B02D87B68FA681A6300BF1437BD4620
:107D70005DF8047B704780B483B000AF78607B68A7
:107D8000DB6918460C37BD465DF8047B704780B44C
:107D900083B000AF78600B46FB70FB78002B06D1F8
:107DA0007B681B6823F480327B681A6005E07B687F
:107DB0001B6843F480327B681A6000BF0C37BD46F5
:107DC0005DF8047B704780B485B000AF78607B6855
:107DD0005B6B1B0EDBB203F00F03FB73FB7B5B00E3
:107DE000DBB20733FB73FB7B1F2B01D91F23FB7314
:107DF000FB7B18461437BD465DF8047B70470000D6
:107E000080B485B000AFF860B9607A607B689A048E
:107E1000064B1340FA68B96801F5087142F8213041
:107E200000BF1437BD465DF8047B70470000FC1F9F
:107E300080B485B000AFF860B9607A607B6823F0E9
:107E40006041FB68BA6802F5087243F8221000BF6F
:107E50001437BD465DF8047B704780B483B000AF33
:107E600078600B46FB707B685B6B23F48052FB7879
:107E7000002B02D04FF4805300E000231A437B68AC
:107E80005A6300BF0C37BD465DF8047B704780B471
:107E900083B000AF78600B46FB707B681B6823F4EF
:107EA0000032FB78002B01D0002301E04FF40033B7
:107EB0001A437B681A6000BF0C37BD465DF8047B2F
:107EC000704780B483B000AF78600B46FB707B686E
:107ED0001B6823F40042FB78002B02D04FF40043D0
:107EE00000E000231A437B681A6000BF0C37BD46D0
:107EF0005DF8047B704780B483B000AF78607B6826
:107F00001B6803F48043002B14BF01230023DBB262
:107F100018460C37BD465DF8047B704780B483B0CB
:107F200000AF78607B68D3F8083B5B0CDBB203F0F2
:107F30000103DBB218460C37BD465DF8047B704781
:107F400080B483B000AF78607B68D3F8083B43F41B
:107F500000327B68C3F8082B00BF0C37BD465DF8C4
:107F6000047B704780B483B000AF78607B68D3F83F
:107F7000083B1B0CDBB203F00103DBB218460C37E5
:107F8000BD465DF8047B704780B483B000AF786075
:107F90007B68D3F8083B43F480327B68C3F8082B36
:107FA00000BF0C37BD465DF8047B704780B584B0D8
:107FB00000AF03460A46FB711346BB71FB79094AC1
:107FC00052F82330FB60F86801F043FCBB79194696
:107FD000F868FFF7DCFEF86801F01EFC00BF103700
:107FE000BD4680BDD0EE010090B587B000AF3B60CC
:107FF0000346FB710B46BB7113467B71FB794A4A02
:1080000052F823307B61786901F023FC7C79786930
:10801000FFF76AFE03469C4202D87B791F2B05D9E5
:10802000786901F0F9FB4FF4407378E07869FFF765
:108030001CFE034683F00103DBB2002B13D0BB7997
:10804000002B06D17B793A6819467869FFF7D8FE8C
:1080500061E0BB79012B5ED17B793A68194678697A
:10806000FFF7E6FE57E07869FFF7ADFE03461A46D4
:108070007B7993423CD87869FFF70AFE0346FB748C
:10808000F97CBB793A68184600F09CFEF860FB7CEE
:10809000012B0AD0022B12D0002B20D17B79FA6859
:1080A00019467869FFF718FD35E07979FB681A0CF5
:1080B000FB6813431A467869FFF70EFD2BE07979C8
:1080C000FB681A0EFB681A43FB681B0C1A43FB681B
:1080D0001B0A13431A467869FFF7FEFC1BE07B7905
:1080E0004FF0FF3219467869FFF7F6FC00BF12E047
:1080F000BB79002B06D17B793A6819467869FFF77E
:108100007FFE08E0BB79012B05D17B793A681946DF
:108110007869FFF78DFE786901F07EFB0023184631
:108120001C37BD4690BD00BFD0EE010080B584B0C5
:1081300000AF0346FB71FB791E4AD35613F1800F43
:1081400005D0FB791B4AD356184601F04BFDFB794D
:10815000194AD356184601F045FDFB79174AD35604
:10816000184601F03FFD0023FB731CE0FA7BF97910
:10817000134813465B00134403440B4493F9003047
:1081800013F1800F0CD0FA7BF9790D4813465B0090
:10819000134403440B4493F90030184601F022FDC8
:1081A000FB7B0133FB73FB7B012BDFD900BF103757
:1081B000BD4680BDDCEE0100E0EE0100E4EE010012
:1081C000E8EE0100B0B58EB000AF0346B9607A604A
:1081D000FB73FB7B914A52F82330FB62F86AFFF78E
:1081E00024FC0346002B05D0F86A01F032FBF86A44
:1081F00000F069FF7B685B7A1946F86AFFF724FC98
:10820000F86A00F036FFF86A01F023FBF86A00F024
:1082100075FF7B681B7A1946F86AFFF7DFFCF86A7E
:10822000FFF704FD03461A467B681B7A9A4201D089
:108230000123EFE07B681B7A1946F86AFFF70DFE11
:108240007B689B79022B03D00021F86AFFF71FFEA1
:108250007B685B79002B0CD07B681B791946F86A28
:1082600001F0E7F903467B857B8D002B01D07B8DE8
:10827000D0E07B6893F83430012B0CD1F86AFFF71B
:10828000F4FC0346002B04D00121F86AFFF719FE25
:1082900001E00123BEE07B6893F83430002B03D16A
:1082A0000021F86AFFF70DFE7B68DB791946F86A52
:1082B00001F0CCFB7B681B681946F86A01F0FCF9F9
:1082C00003467B857B8D002B01D07B8DA2E0F86A75
:1082D000FFF7ACFC0346002B1ED07B6807F11404AB
:1082E00003F10C050FCD0FC42B68236007F11403B5
:1082F0001946F86AFFF704FC7B6807F1140403F1E0
:1083000020050FCD0FC42B68236007F11403194615
:10831000F86AFFF729FC0EE07B6807F1140403F10B
:108320000C050FCD0FC42B68236007F11403194609
:10833000F86AFFF7A0FB7B689B791946F86A01F0A1
:1083400033FB7B689B79032B02D0F86A01F064FA57
:10835000FB7B1846FFF7EAFE00237B6335E07B6B6F
:10836000DB00BA68134404330021184602F0B2FC63
:1083700003463B853B8D002B13D000233B630AE073
:108380003B6BDB00BA6813440433184602F0B4FCBC
:108390003B6B01333B633A6B7B6B9A42F0D3012317
:1083A00038E0BA687B6BDB00134400229A71BB682B
:1083B0007A6B002143F83210BA687B6BDB00134400
:1083C00000225A717B6B01337B637B6B1F2BC6D9F9
:1083D0007B6893F83420BB6883F811217B6893F89D
:1083E0003520BB6883F81021BB680022C3F8002148
:1083F000BB680022C3F80421BB680022C3F808212F
:10840000BB680022C3F80C21FB7B0549BA6841F820
:108410002320002318463837BD46B0BDD0EE0100FA
:108420004401002080B58CB002AFBA607B60034687
:10843000FB730B46BB73FB7B124A52F823307B6203
:10844000BB685B68FB61BB681B783B76BB689B7A4B
:1084500087F82230BB681B7A87F82030BB685B7ACC
:1084600087F8213008237B61B97B07F114020023D0
:1084700000937B68786A00F077FE03461846283739
:10848000BD4680BDD0EE010080B588B002AFBA60B5
:108490007B600346FB730B46BB73FB7B0F4A52F8B2
:1084A00023303B61B97BF87B002301933B6A009347
:1084B0007B68BA6800F074FA0346FB82FB8A002BE3
:1084C00007D1BB7B01221946386901F06DF90346DB
:1084D000FB82FB8A18461837BD4680BDD0EE0100EE
:1084E00080B58AB000AFBA607B600346FB730B4671
:1084F000BB73FB7B1C4A52F823303B62BB685B6852
:10850000BB61BB681B783B75BB681B7A3B770F234D
:108510003B61B97B07F110027B68386A00F04AFFC3
:108520000346FB84FB8C002B0AD100233B61B97B03
:1085300007F110027B68386A00F03CFF0346FB84B9
:10854000FB8C002B0AD104233B61B97B07F110029D
:108550007B68386A00F02EFF0346FB84FB8C1846CC
:108560002837BD4680BD00BFD0EE010080B584B085
:1085700000AF03463A60FB710B46BB71B979F879DD
:1085800000233A6800F086FA0346FB81FB8918460F
:108590001037BD4680BD000090B585B000AF0346E2
:1085A0003960FB71FB792D4A52F82330FB60FB796F
:1085B0002B4A52F82330BB603B68052B20D1BB68A7
:1085C0005B79DBB2012B44D1BB681B681946F868A4
:1085D00001F096F9FB79184600F0FCFA3968F86862
:1085E000FFF7B1FBBB68D3F80031002B31D0BB687B
:1085F000D3F80041F879BB6800220121A04728E0A8
:108600003B68062B11D13968F868FFF79CFBBB6803
:10861000D3F80031002B1CD0BB68D3F80041F879A7
:10862000BB6800220221A04713E03B68072B10D152
:108630003968F868FFF787FBBB68D3F80031002B77
:1086400007D0BB68D3F80041F879BB68002203214A
:10865000A04700BF1437BD4690BD00BFD0EE01005B
:108660004401002090B587B000AF03463960FB712C
:10867000FB791D4A52F823307B61FB791B4A52F883
:1086800023303B610023FB813968786900F0C1FF2A
:108690003B693A6853F832301A463968786900F015
:1086A0001BFF0346FB81FB89002B18D17869FFF77C
:1086B000D0FAFB793968184600F05AFA39687869B7
:1086C000FFF741FB3B69D3F80031002B07D03B6932
:1086D000D3F80041F8793B693A680021A04700BF10
:1086E0001C37BD4690BD00BFD0EE01004401002004
:1086F00090B59DB000AF0346FB710023FB66FB798C
:10870000564A52F823307B66FB79554A52F823309B
:108710003B660023BB66B96E786EFFF7F3FA03463B
:10872000FB660BE0BB6E0133BB66B96E786EFFF77C
:10873000E9FA0346FB66BB6E1F2B05D8FB6E03F000
:108740000103002BEED000E000BFFB6E002B5AD0DF
:10875000786EFFF78AFA0346002B08D0BB6E072B12
:1087600005D8FB79B96E1846FFF716FF0CE03A6E94
:10877000BB6EDB0013445B79DBB2012B04D1FB79C8
:10878000B96E1846FFF76EFF3A6EBB6EDB001344FE
:108790005B79DBB2022B5DD1FB79B96E184600F034
:1087A000E7F93A6EBB6EDB001344DB79002B18D07F
:1087B000B96E786E00F02DFF07F10C031A46B96E02
:1087C000786E00F089FE786EFFF743FAFB681B0EA7
:1087D00003F00F03042B08D1B96E786EFFF7B3FADC
:1087E00003E0B96E786EFFF7AEFA3B6ED3F8003156
:1087F000002B2FD03B6ED3F80041F8793B6EBA6E58
:108800000421A04726E0FB79002B17D1786EFFF7F3
:1088100085FB034687F85F30786EFFF7A3FB0346BE
:1088200087F85E3097F85F30002B03D197F85E3001
:10883000002B03D0FB79184600F03AF8786EFFF76A
:108840009AFAB865BB6D002B04D0FB79184600F08E
:1088500009F800BF00BF7437BD4690BDD0EE0100DF
:108860004401002080B584B000AF0346FB71FB7962
:108870000D4A52F82330FB60FB790C4A52F8233042
:10888000BB60BB68D3F80831002B06D0BB68D3F8B7
:108890000831F879BA680A219847F86801F018F8A1
:1088A00000BF1037BD4680BDD0EE0100440100205E
:1088B00090B585B000AF0346FB71FB791F4A52F8B3
:1088C0002330FB60FB791E4A52F82330BB60F86806
:1088D000FFF711FB0346002B2BD0F868FFF71EFBB8
:1088E0000346002B0FD0F868FFF72AFBBB68D3F8CC
:1088F0000031002B07D0BB68D3F80041F879BB6882
:1089000000220521A047F868FFF72CFB0346002B47
:108910000FD0F868FFF738FBBB68D3F80031002BA5
:1089200007D0BB68D3F80041F879BB680022062164
:10893000A04700BF1437BD4690BD00BFD0EE010078
:108940004401002080B485B000AF03460A46FB71A5
:108950001346BB71FB79114A52F82330BB60BB79D7
:10896000BA68DB0013445B79DBB2002B02D1002331
:10897000FB810CE0BB79BA68DB0013445B79DBB2A6
:10898000032B02D10123FB8101E00223FB81FB8940
:1089900018461437BD465DF8047B7047440100203B
:1089A00090B58FB002AFBA607B600346FB730B4695
:1089B000BB73FB7B354A52F82330FB62FB7B344AA6
:1089C00052F82330BB62BC7BB86A00F0BDFA0346A4
:1089D0009C4202D34FF4407353E0BB7BFA6ADB0046
:1089E00013445B79DBB2002B01D0022349E0BB7B4F
:1089F0001946B86AFFF7A7F9BB7BFA6ADB00134494
:108A000002225A71BB7BFA6ADB00134497F84420B8
:108A10009A71BB7BBA68D17AFA6ADB0013440A46C2
:108A2000DA71BB685B68FB61BB681B783B76BB682F
:108A30001B7A87F82030BB685B7A87F82130BB68E7
:108A40009B7A87F82230BB68DB7A002B02D01C238C
:108A50007B6101E00C237B61B97B07F114023B6C65
:108A600000937B68B86A00F07FFB0346FB84FB8CB5
:108A7000002B05D0BB7BFA6ADB00134400225A713D
:108A8000FB8C18463437BD4690BD00BF4401002022
:108A9000D0EE010090B589B000AF3A601A460346A7
:108AA000FB710B46BB7113467B710023FB83FB7983
:108AB0002D4A52F82330BB61FB792C4A52F82330FF
:108AC0007B61BC79B86900F03FFA03469C4202D34F
:108AD0004FF4407343E0B869FFF7C7F80346002B33
:108AE00010D0BB695B6B1B0E03F00F033B61386951
:108AF000FEF78CFFF860BA79FB689A4202D84FF40F
:108B000040732CE0BB797A69DB0013445B79DBB2FC
:108B1000002B01D0022322E0BB797A69DB001344E9
:108B200001225A71BA797B69396843F83210BB79EE
:108B30007A69DB0013447A799A71BB79012219466C
:108B4000B86900F031FE0346FB83FB8B002B05D098
:108B5000BB797A69DB00134400225A71FB8B1846FB
:108B60002437BD4690BD00BFD0EE01004401002077
:108B700080B584B000AF03463960FB71FB79134ABE
:108B800052F82330FB60FB79114A52F82330BB6066
:108B900000223968F86800F007FEBA683B68DB001D
:108BA00013449B79002B07D03B68DB00BA68134461
:108BB0000433184602F070F8BA683B68DB001344CF
:108BC00000225A7100BF1037BD4680BDD0EE0100B3
:108BD0004401002090B589B000AF0346FB71FB79DA
:108BE000404A52F82330FB61FB793F4A52F8233068
:108BF000BB61BB6993F81131002B0FD10022052115
:108C0000F86900F0D1FD00220621F86900F0CCFDE2
:108C100000220721F86900F0C7FD31E0BB695B79EC
:108C2000DBB2032B2CD0BB691B687B617B690833EB
:108C30003B61BB6993F810311846FEF703FE7B6970
:108C40001B6803F40013002B04D17B695B689A0C4A
:108C50007B695A607B691B681B0CDBB203F00F0356
:108C6000DAB27B6983F848203B691B681ABA3B6912
:108C70001A603B6904333A690432126812BA1A6006
:108C8000BB6900221A60BB695B79DBB2032B14D08D
:108C9000BB6900225A71BB69D3F80031002B0CD09C
:108CA000BB6993F81131012B07D1BB69D3F800419F
:108CB000F879BB6900220821A047BB699B79002B8A
:108CC0000BD0BB695B79DBB2002B06D1BB690433E7
:108CD000184601F0E1FF0346FB8100BF2437BD4683
:108CE00090BD00BFD0EE01004401002080B487B0E9
:108CF00000AF0346B9607A60FB73FB7B084A52F809
:108D000023307B617B69BA68C3F800217B697A688C
:108D1000C3F8042100BF1C37BD465DF8047B7047D3
:108D20004401002080B483B000AF78607B680133D9
:108D3000DB009B08053318460C37BD465DF8047B05
:108D4000704780B483B000AF78607B681B6803F421
:108D50000063002B14BF01230023DBB218460C373D
:108D6000BD465DF8047B704780B483B000AF786087
:108D70007B681B6803F00053002B14BF0123002302
:108D8000DBB218460C37BD465DF8047B704780B4F3
:108D900083B000AF78600B46FB707B681B6823F4E0
:108DA0000032FB78002B01D0002301E04FF40033A8
:108DB0001A437B681A6000BF0C37BD465DF8047B20
:108DC0007047000080B485B000AF03463A60FB7185
:108DD0000B46BB710023FB60BB79032B4AD801A271
:108DE00052F823F0F58D0100298E01005D8E0100FF
:108DF000758E01003B6803F04043FB60FB79002B5C
:108E000007D13B68DA04224B1340FA681343FB6036
:108E100032E0FB79012B2FD13B685B0023F040430C
:108E2000FA681343FB6027E03B6803F04043FB60B4
:108E3000FB79002B07D13B68DA04154B1340FA6825
:108E40001343FB601AE0FB79012B17D13B681A042E
:108E5000104B1340FA681343FB600FE0FB79012BC2
:108E600002D0FB79002B0BD13B681B06FA68134339
:108E7000FB6005E000BF04E000BF02E000BF00E0CF
:108E800000BFFB6818461437BD465DF8047B704789
:108E90000000F83F0000FF3F80B485B000AF0346FC
:108EA000FB71FF23FB60FB79402B03D8FB79054A5C
:108EB000D35CFB60FB68DBB218461437BD465DF837
:108EC000047B7047F0EE010080B485B000AF03462C
:108ED000FB710023FB73FB79082B02D8FB79FB7332
:108EE0002AE0FB79093B062B25D801A252F823F092
:108EF0000D8F0100138F0100198F01001F8F0100DA
:108F0000258F01002B8F0100318F01000C23FB7393
:108F100012E01023FB730FE01423FB730CE0182303
:108F2000FB7309E02023FB7306E03023FB7303E0AF
:108F30004023FB7300E000BFFB7B18461437BD469F
:108F40005DF8047B704700BF80B485B000AF7860E7
:108F50000023BB600023FB600EE00C4AFB6852F864
:108F600023207B689A4204D1094AFB6852F82330D7
:108F7000BB60FB680133FB60FB68022BEDD9BB686B
:108F800018461437BD465DF8047B704734EF010086
:108F900040EF010080B586B000AF78607868FFF7D9
:108FA000D3FF03469B003B617868FFF7CDFFF86075
:108FB0007B688033BB6000237B6108E07B699B009A
:108FC000BA68134400221A607B6901337B617A69B5
:108FD0003B699A42F2D37B6803F50863BB600023C8
:108FE0007B6108E07B699B00BA68134400221A6029
:108FF0007B6901337B617A69FB689A42F2D300BFD7
:109000001837BD4680BD80B588B000AF7860396044
:10901000786800F03CFD0346FB770823BB774FF4EC
:109020000073BB61FA7FBB7F1344FB75FB7DBA699C
:10903000B2FBF3F3BB75BB7D3A68B2FBF3F3DB0124
:109040003B61BA7D3B68B3FBF2F102FB01F29B1A74
:10905000FA7D9208D2B202FB03F23B691344FB6033
:10906000FB6820339B007A68134418462037BD46BE
:1090700080BD80B483B000AF78607B681B681B0D37
:1090800003F00103012B18D17B681B6823F0004219
:109090007B681A607B681B6823F080427B681A60DB
:1090A0007B681B6823F080527B681A6000BF7B6876
:1090B0001B6803F00063002BF9D100BF0C37BD46DD
:1090C0005DF8047B704780B483B000AF78607B6844
:1090D0001B68002B0CDB7B681B6843F000427B683D
:1090E0001A6000BF7B681B6803F48013002BF9D063
:1090F00000BF0C37BD465DF8047B704780B582B079
:1091000000AF78607B681B6843F000727B681A6070
:1091100000BF7B681B6803F00073002BF9D17B68EC
:109120001B6843F480527B681A607868FFF732FF4F
:109130007B684FF0FF321A617B684FF0FF325A6153
:109140007B684FF0FF329A617B6800229A627B68ED
:109150004FF0FF321A637B68024A1A6200BF083779
:10916000BD4680BD06003B0080B590B000AFF86002
:10917000B9607A603B6001233B630023FB630023FB
:10918000FB86B968F868FFF73EFFF862FB6A0433B4
:10919000BB62FB6A08337B62FB6A08333B62BB6CD1
:1091A000FB61FB681B6803F07F02BB689A4202D236
:1091B0004FF44073FB86FB681B6803F00053002BE1
:1091C00010D0FB685B6B1B0E03F00F03BB61B8692B
:1091D000FFF7A8FD3863BA683B6B9A4202D84FF498
:1091E0004073FB86FB8E002B40F0DC80F868FFF7B5
:1091F000A8FD0346002B0BD07B689B7B002B07D080
:10920000FB68D3F8003C43F00042FB68C3F8002C35
:109210007B689B68DBB21846FFF73EFE0346FB7592
:10922000BB6C002B45D0FB7D1846FFF74DFE034677
:10923000BB750023BB630FE0BB6B9B089B003A6AC6
:109240001344BA6B92089200F9690A44126812BA80
:109250001A60BB6B0433BB637B689B6823F003021B
:10926000BB6B9A42E8D80CE0BB6B83F003037A6ACD
:109270001344B96CBA6B0A4412781A70BB6B013391
:10928000BB637B689A68BB6B9A42EDD87B689B682E
:10929000BB630AE0BB6B83F003037A6A13447A680A
:1092A000527B1A70BB6B0133BB63BA7DBB6B9A42B6
:1092B000F0D8FB6A00221A60BB6A00221A607B6841
:1092C0001B79012B15D1BB6A1B6803F06042BB6A96
:1092D0001A60BB6A1A683B6823F060431A43BB6A92
:1092E0001A60FB6B43F40013FB63FB6B23F48003F6
:1092F000FB637B681B79002B14D1BB6A1B6823F0CE
:10930000FF5323F4E013BA6A1360BB6A1A683B6820
:109310009904274B0B401A43BB6A1A60FB6B23F47A
:10932000C003FB63FB6B23F47023FB63FB7D1B0417
:1093300003F47023FA6B1343FB637B681B680F2BEA
:1093400030D07B681B681C2B03D1FB6B43F480136C
:10935000FB63FB6B23F07063FB637B681B7B002B61
:109360000AD07B681B681B0603F07062FB6B13431B
:1093700043F00043FB6307E07B681B681B0603F0B8
:109380007063FA6B1343FB637B689B7B002B03D0FA
:10939000FB6B43F08043FB63FB6A1A68FB6B1A4369
:1093A000FB6A1A60FB8E18464037BD4680BD00BF81
:1093B0000000FC1F80B58AB000AFF860B9607A6029
:1093C0003B6001233B62B968F868FFF71CFEF86157
:1093D000FB690433BB610023FB84FB681B6803F05B
:1093E0007F02BB689A4202D24FF44073FB84FB6851
:1093F0001B6803F00053002B10D0FB685B6B1B0E47
:1094000003F00F037B617869FFF78CFC3862BA6860
:109410003B6A9A4202D84FF44073FB84FB8C002BCA
:1094200052D1FB6900221A60BB6900221A607B6876
:109430001B79012B19D1FB691B6843F40012FB69EE
:109440001A60FB691B6823F48002FB691A60BB6920
:109450001B6803F06042BB691A60BB691A683B680D
:1094600023F060431A43BB691A607B681B79002BA9
:1094700016D1FB691B6823F4C002FB691A60BB6943
:109480001B6823F0FF5323F4E013BA691360BB6930
:109490001A683B6899040F4B0B401A43BB691A606A
:1094A0007B681B680F2B0FD0FB691B6823F0706271
:1094B000FB691A60FB691A687B681B681B0603F06E
:1094C00070631A43FB691A60FB8C18462837BD4647
:1094D00080BD00BF0000FC1F80B58EB000AFF860FB
:1094E000B9607A6001233B630023BB86B968F868E2
:1094F000FFF789FDF862FB6A0433BB62FB6A08333D
:109500007B62FB6A08333B627B680833FB61FB6A62
:109510001B681B0CDBB203F00F03FB76FB7E1846C7
:10952000FFF7D2FC0346BB767B68BA7E83F84820FF
:10953000FB681B6803F00053002B10D0FB685B6BCB
:109540001B0E03F00F037B617869FFF7EBFB3863B9
:10955000BA683B6B9A4202D84FF44073BB86BB8E0D
:10956000002B51D1FB6A1A687B681A607B681B6804
:1095700003F40013002B04D0BB6A1A687B685A609E
:1095800004E0BB6A1B689A0C7B685A60002387F86A
:10959000373017E097F837309B08DBB29B003A6A08
:1095A00013441B683B6197F837309B08DBB29B0084
:1095B000FA6913443A6912BA1A6097F837300433DB
:1095C00087F8373097F83720BB7E23F003039A42A1
:1095D000E0D314E097F8373097F8372082F0030291
:1095E000D2B211467A6A0A441278D1B27A68134428
:1095F0000A461A7297F83730013387F8373097F8F0
:109600003720BB7E9A42E5D3BB8E18463837BD461D
:1096100080BD80B584B000AF786039603968786803
:10962000FFF7F1FCF860FB681B6800BF1037BD4610
:1096300080BD80B584B000AF786039607868FFF78E
:1096400083FC03463B8100237B817868FFF779FB2D
:109650000346002B01D001237B817B89002B26D17F
:109660007B681B6843F000527B681A607B685B6B09
:1096700023F070623B681B0603F070631A437B683B
:109680005A637B684FF0FF329A640023FB600AE064
:109690007B68FA6802F508726FF0604143F82210A7
:1096A000FB680133FB603A89FB689A42F0D87B89FA
:1096B00018461037BD4680BD80B58AB000AF7860CF
:1096C0003960786800F0E3F903467B770023FB8379
:1096D00008233B773B68013B19467868FFF793FC0A
:1096E000B8617A7FBB691A443B7F13447B617B6816
:1096F00003F520731A467B699A4206D37868FFF710
:1097000023FC02463B689A4202D24FF44073FB832B
:10971000FB8B002B43D17B681B6823F07F023B68E7
:10972000013B03F07F031A437B681A607868FFF7F8
:109730001BFB034683F00103DBB2002B2FD0002379
:1097400087F8273026E097F8273019467868FFF722
:109750005AFC38613B690433FB603B690833BB60EA
:109760003B6900221A60FB6800221A6000233B62FA
:1097700007E0BA683B6A134400221A703B6A01335F
:109780003B627A7F3B6A9A42F3D897F827300133DD
:1097900087F8273097F827203B689A42D3D3FB8B72
:1097A00018462837BD4680BD80B487B000AFF8604A
:1097B000B9601346FB710023FB82FB681B6803F052
:1097C0007F02BB689A4202D24FF44073FB82FB8A4D
:1097D000002B1AD1BB6803F01F03012202FA03F326
:1097E0003B61BB681F2B10D8FB79002B06D0FB68B0
:1097F0009A6A3B691A43FB689A6206E0FB689A6AB8
:109800003B69DB431A40FB689A62FB8A18461C37A7
:10981000BD465DF8047B704780B483B000AF7860CC
:109820007B681B6823F080527B681A607B681B682A
:1098300023F080427B681A6000BF7B681B6803F0DE
:109840008073002BF9D100BF0C37BD465DF8047B57
:10985000704780B485B000AF78600023FB737B68ED
:109860001B6843F080427B681A607B681B6843F08A
:1098700080527B681A607B681B68002B02DB012327
:10988000FB7305E07B681B6823F000427B681A606D
:1098900000BF7B681B6803F08073002BF9D0FB7B53
:1098A00083F00103DBB2002B0CD07B681B6843F014
:1098B00000427B681A6000BF7B681B6803F480135A
:1098C000002BF9D000BF1437BD465DF8047B70470C
:1098D00080B483B000AF78607B681A6A074B13408E
:1098E000002B04D07B68054A1A627B681B6A00BFA4
:1098F0000C37BD465DF8047B704700BF06003B0097
:1099000080B58AB000AF786039607B6880333B6295
:109910007B688433FB613B6A0833BB613B68083377
:109920007B613B6A1B681B0CDBB203F00F03FB740B
:10993000FB7C1846FFF7C8FA0346BB743B68BA7C49
:1099400083F848203B6A1A683B681A603B681B68CA
:1099500003F40013002B04D0FB691A683B685A60BB
:1099600004E0FB691B689A0C3B685A6000237B6229
:1099700011E07B6A9B089B00BA6913441B68FB607B
:109980007B6A9B089B007A691344FA6812BA1A60D2
:109990007B6A04337B62BA7C7B6A9A42E9D800BF57
:1099A0002837BD4680BD000080B582B000AF78602A
:1099B0000B46FB70FB78042B42D801A252F823F02F
:1099C000EB990100119A01001F9A0100D59901003D
:1099D000DD9901007868FFF73CFF32E07B681B6887
:1099E00043F000427B681A602BE07B681B6823F41D
:1099F00000027B681A607B685B6823F008027B6862
:109A00005A607B685B6823F480527B685A6018E078
:109A10007B685B6843F008027B685A6011E07B68F2
:109A20005B6843F480527B685A607B685B6823F014
:109A300008027B685A6001217868FFF7A8F900E006
:109A400000BF00BF0837BD4680BD00BF80B584B0F1
:109A500000AF78600B46FB707868FFF772F9034639
:109A6000002B10D07B68D3F8003CFB60FB6823F42C
:109A70004033FB60FB781B04FA681343FB607B6890
:109A8000FA68C3F8002C00BF1037BD4680BD80B512
:109A900084B000AF78607868FFF753F9034683F02D
:109AA0000103DBB2002B02D00823FB600AE07B68D5
:109AB000D3F8003C1B0C03F003030333012202FA2A
:109AC00003F3FB60FB68DBB218461037BD4680BD70
:109AD00080B500AF0020FEF70BFE00BF80BD80B553
:109AE00000AF0020FEF7BEFE00BF80BD80B500AF16
:109AF0000020FEF7DDFE00BF80BD80B500AF002076
:109B0000FEF7F6FD00BF80BD80B500AF0020FEF778
:109B1000EFFD00BF80BD80B500AF0120FEF7E8FD7E
:109B200000BF80BD80B500AF0120FEF79BFE00BFE7
:109B300080BD80B500AF0120FEF7DAFD00BF80BD1B
:109B400080B500AF0220FEF7D3FD00BF80BD80B519
:109B500000AF0220FEF786FE00BF80BD80B500AFDB
:109B60000220FEF7C5FD00BF80BD000080B48BB0B1
:109B700000AF0346B9607A60FB73164B7B62164BED
:109B80003B62164BFB61164BBB617A6A3B6A9A4299
:109B900003D1FA69BB699A4216D10E4B7B617B688F
:109BA000002B09D097F90F3010339B007A691344CA
:109BB0001B681A467B681A6097F90F3010339B00B8
:109BC0007A691344BA681A6000BF2C37BD465DF845
:109BD000047B70470080FF1F0042010040F201003B
:109BE000B0F4010080B483B000AF0346FB710949B3
:109BF00097F907305B09FA7902F01F02012000FA99
:109C000002F241F8232000BF0C37BD465DF8047B0B
:109C1000704700BF00E100E080B400AF094B1B6853
:109C2000002B09DD074B1B68013B064A1360054BFF
:109C30001B68002B00DC62B600BFBD465DF8047BEC
:109C4000704700BF5001002080B400AF72B6054BD2
:109C50001B680133034A136000BFBD465DF8047BF7
:109C6000704700BF5001002080B485B000AF78601D
:109C70000B46FB707B681B68FB60FB6823F4C073BA
:109C8000FB60FB78002B02D04FF4807300E00023D0
:109C9000FA681343FB607B68FA681A6000BF1437E8
:109CA000BD465DF8047B704780B485B000AF786036
:109CB0007B681B68FB60FB6843F08003FB607B688C
:109CC000FA681A607B681B6800BF1437BD465DF8F0
:109CD000047B704780B485B000AF78600B46FB70A2
:109CE0007B681B68FB60FB6823F0C003FB60FB78AC
:109CF000002B01D0402300E00023FA681343FB60EF
:109D00007B68FA681A6000BF1437BD465DF8047BB3
:109D1000704780B485B000AF78600B46FB707B68FD
:109D20001B68FB60FB6823F0B003FB60FB781B0142
:109D300003F03003FA681343FB607B68FA681A602B
:109D400000BF1437BD465DF8047B704780B485B012
:109D500000AF78600B46FB707B681B68FB60FB689C
:109D600023F08803FB60FB78DB0003F00803FA684C
:109D70001343FB607B68FA681A6000BF1437BD4666
:109D80005DF8047B704780B485B000AF78600B4607
:109D9000FB707B681B68FB60FB6823F08403FB603F
:109DA000FB78002B01D0042300E00023FA68134362
:109DB000FB607B68FA681A6000BF1437BD465DF827
:109DC000047B704780B485B000AF78600B46FB70B1
:109DD0007B681B68FB60FB6823F08203FB60FB78F9
:109DE0005B0003F00203FA681343FB607B68FA68C8
:109DF0001A6000BF1437BD465DF8047B704780B41D
:109E000085B000AF78607B681B68FB60FB6823F05F
:109E10008103FB60FB6843F00103FB607B68FA6829
:109E20001A6000BF1437BD465DF8047B704780B4EC
:109E300085B000AF78600B46FB707B685B68FB60A9
:109E4000FB6823F07803FB60FB78DB0003F078030A
:109E5000FA681343FB607B68FA685A6000BF1437E6
:109E6000BD465DF8047B704780B485B000AF786074
:109E70000B46FB707B685B68FB60FB6823F00403A8
:109E8000FB60FB78002B01D0042300E00023FA687C
:109E90001343FB607B68FA685A6000BF1437BD4605
:109EA0005DF8047B704780B485B000AF78600B46E6
:109EB000FB707B685B68FB60FB6823F00303FB605F
:109EC000FB7803F00303FA681343FB607B68FA68CE
